{
  "contractName": "ExerciceSolution",
  "abi": [
    {
      "inputs": [],
      "stateMutability": "nonpayable",
      "type": "constructor"
    },
    {
      "inputs": [],
      "name": "DAI",
      "outputs": [
        {
          "internalType": "contract ERC20",
          "name": "",
          "type": "address"
        }
      ],
      "stateMutability": "view",
      "type": "function",
      "constant": true
    },
    {
      "inputs": [],
      "name": "depositSomeTokens",
      "outputs": [],
      "stateMutability": "nonpayable",
      "type": "function"
    },
    {
      "inputs": [],
      "name": "withdrawSomeTokens",
      "outputs": [],
      "stateMutability": "nonpayable",
      "type": "function"
    },
    {
      "inputs": [],
      "name": "borrowSomeTokens",
      "outputs": [],
      "stateMutability": "nonpayable",
      "type": "function"
    },
    {
      "inputs": [],
      "name": "repaySomeTokens",
      "outputs": [],
      "stateMutability": "nonpayable",
      "type": "function"
    },
    {
      "inputs": [],
      "name": "doAFlashLoan",
      "outputs": [],
      "stateMutability": "nonpayable",
      "type": "function"
    },
    {
      "inputs": [],
      "name": "repayFlashLoan",
      "outputs": [],
      "stateMutability": "nonpayable",
      "type": "function"
    }
  ],
  "bytecode": "0x608060405234801561001057600080fd5b5073ba8dced3512925e52fe67b1b5329187589072a556000806101000a81548173ffffffffffffffffffffffffffffffffffffffff021916908373ffffffffffffffffffffffffffffffffffffffff16021790555061037d806100746000396000f3fe608060405234801561001057600080fd5b506004361061007d5760003560e01c8063db50609f1161005b578063db50609f146100a0578063e0bab4c4146100aa578063f6b96bae146100f4578063fc6669b6146100fe5761007d565b80631a231a71146100825780634b5bd34f1461008c578063d871f59414610096575b600080fd5b61008a610108565b005b61009461010a565b005b61009e61010c565b005b6100a861010e565b005b6100b2610110565b604051808273ffffffffffffffffffffffffffffffffffffffff1673ffffffffffffffffffffffffffffffffffffffff16815260200191505060405180910390f35b6100fc610135565b005b610106610345565b005b565b565b565b565b6000809054906101000a900473ffffffffffffffffffffffffffffffffffffffff1681565b6000670de0b6b3a764000090506000809054906101000a900473ffffffffffffffffffffffffffffffffffffffff1673ffffffffffffffffffffffffffffffffffffffff1663095ea7b3737b5c526b7f8dfdff278b4a3e045083fba4028790836040518363ffffffff1660e01b8152600401808373ffffffffffffffffffffffffffffffffffffffff1673ffffffffffffffffffffffffffffffffffffffff16815260200182815260200192505050602060405180830381600087803b1580156101fe57600080fd5b505af1158015610212573d6000803e3d6000fd5b505050506040513d602081101561022857600080fd5b810190808051906020019092919050505050737b5c526b7f8dfdff278b4a3e045083fba402879073ffffffffffffffffffffffffffffffffffffffff1663617ba03773ba8dced3512925e52fe67b1b5329187589072a55833060006040518563ffffffff1660e01b8152600401808573ffffffffffffffffffffffffffffffffffffffff1673ffffffffffffffffffffffffffffffffffffffff1681526020018481526020018373ffffffffffffffffffffffffffffffffffffffff1673ffffffffffffffffffffffffffffffffffffffff1681526020018261ffff168152602001945050505050600060405180830381600087803b15801561032a57600080fd5b505af115801561033e573d6000803e3d6000fd5b5050505050565b56fea2646970667358221220e09211dd3f3917fc44b55cafe779bd89af15eece68d9c41211923a2d1265beef64736f6c63430006000033",
  "source": "pragma solidity ^0.6.0;\r\n\r\nimport \"./IExerciceSolution.sol\";\r\nimport \"@openzeppelin/contracts/token/ERC20/ERC20.sol\";\r\nimport {IPool} from \"@aave/core-v3/contracts/interfaces/IPool.sol\";\r\n\r\n\r\ncontract ExerciceSolution is IExerciceSolution\r\n{\r\n    ERC20 public DAI;\r\n\r\n    constructor() public{\r\n        DAI=ERC20(0xBa8DCeD3512925e52FE67b1b5329187589072A55);\r\n    }\r\n\r\n\tfunction depositSomeTokens() external override{\r\n        uint256 amount = 10**18;\r\n\r\n        DAI.approve(0x7b5C526B7F8dfdff278b4a3e045083FBA4028790, amount);\r\n        IPool(0x7b5C526B7F8dfdff278b4a3e045083FBA4028790).supply(0xBa8DCeD3512925e52FE67b1b5329187589072A55, amount, address(this), 0);\r\n    }\r\n\r\n\tfunction withdrawSomeTokens() external override{\r\n\r\n    }\r\n\r\n\tfunction borrowSomeTokens() external override{\r\n\r\n    }\r\n\r\n\tfunction repaySomeTokens() external override{\r\n\r\n    }\r\n\r\n\tfunction doAFlashLoan() external override{\r\n\r\n    }\r\n\r\n\tfunction repayFlashLoan() external override{\r\n\r\n    }\r\n}\r\n\r\n",
  "sourcePath": "C:\\Users\\Lucas Kaczmarski\\OneDrive - De Vinci\\Documents\\Esilv\\A4-S8\\Decentralized Finance\\TD3 - AAVE - 101\\lending-101\\contracts\\ExerciceSolution.sol",
  "compiler": {
    "name": "solc",
    "version": "0.6.0+commit.26b70077.Emscripten.clang"
  },
  "schemaVersion": "3.4.11",
  "updatedAt": "2023-02-17T15:38:16.007Z",
  "networkType": "ethereum",
  "devdoc": {
    "methods": {}
  },
  "userdoc": {
    "methods": {}
  }
}